{
  "_format": "hh-sol-artifact-1",
  "contractName": "Stake",
  "sourceName": "contracts/Stake.sol",
  "abi": [
    {
      "inputs": [
        {
          "internalType": "uint256",
          "name": "_interestRate",
          "type": "uint256"
        },
        {
          "internalType": "uint256",
          "name": "_minStakeSeconds",
          "type": "uint256"
        },
        {
          "internalType": "uint256",
          "name": "_maxStakeSeconds",
          "type": "uint256"
        },
        {
          "internalType": "uint256",
          "name": "_withdrawalPeriodEndsSeconds",
          "type": "uint256"
        }
      ],
      "stateMutability": "nonpayable",
      "type": "constructor"
    },
    {
      "anonymous": false,
      "inputs": [
        {
          "indexed": false,
          "internalType": "address",
          "name": "sender",
          "type": "address"
        },
        {
          "indexed": false,
          "internalType": "uint256",
          "name": "amount",
          "type": "uint256"
        }
      ],
      "name": "Received",
      "type": "event"
    },
    {
      "anonymous": false,
      "inputs": [
        {
          "indexed": false,
          "internalType": "address",
          "name": "sender",
          "type": "address"
        },
        {
          "indexed": false,
          "internalType": "uint256",
          "name": "amount",
          "type": "uint256"
        }
      ],
      "name": "Staked",
      "type": "event"
    },
    {
      "anonymous": false,
      "inputs": [
        {
          "indexed": false,
          "internalType": "address",
          "name": "sender",
          "type": "address"
        },
        {
          "indexed": false,
          "internalType": "uint256",
          "name": "amount",
          "type": "uint256"
        }
      ],
      "name": "Unstaked",
      "type": "event"
    },
    {
      "anonymous": false,
      "inputs": [
        {
          "indexed": false,
          "internalType": "address",
          "name": "to",
          "type": "address"
        },
        {
          "indexed": false,
          "internalType": "uint256",
          "name": "amount",
          "type": "uint256"
        }
      ],
      "name": "Withdraw",
      "type": "event"
    },
    {
      "inputs": [
        {
          "internalType": "address",
          "name": "_to",
          "type": "address"
        },
        {
          "internalType": "uint256",
          "name": "_amount",
          "type": "uint256"
        }
      ],
      "name": "adminWithdraw",
      "outputs": [],
      "stateMutability": "nonpayable",
      "type": "function"
    },
    {
      "inputs": [
        {
          "internalType": "address",
          "name": "_to",
          "type": "address"
        },
        {
          "internalType": "uint256",
          "name": "_amount",
          "type": "uint256"
        }
      ],
      "name": "adminWithdrawTreasury",
      "outputs": [],
      "stateMutability": "nonpayable",
      "type": "function"
    },
    {
      "inputs": [],
      "name": "availableInterest",
      "outputs": [
        {
          "internalType": "uint256",
          "name": "",
          "type": "uint256"
        }
      ],
      "stateMutability": "view",
      "type": "function"
    },
    {
      "inputs": [],
      "name": "availableInterestBuffer",
      "outputs": [
        {
          "internalType": "uint256",
          "name": "",
          "type": "uint256"
        }
      ],
      "stateMutability": "view",
      "type": "function"
    },
    {
      "inputs": [
        {
          "internalType": "address",
          "name": "",
          "type": "address"
        }
      ],
      "name": "balances",
      "outputs": [
        {
          "internalType": "uint256",
          "name": "",
          "type": "uint256"
        }
      ],
      "stateMutability": "view",
      "type": "function"
    },
    {
      "inputs": [
        {
          "internalType": "uint256",
          "name": "_amount",
          "type": "uint256"
        },
        {
          "internalType": "uint256",
          "name": "_seconds",
          "type": "uint256"
        }
      ],
      "name": "calculateInterest",
      "outputs": [
        {
          "internalType": "uint256",
          "name": "",
          "type": "uint256"
        }
      ],
      "stateMutability": "view",
      "type": "function"
    },
    {
      "inputs": [],
      "name": "depositInterest",
      "outputs": [],
      "stateMutability": "payable",
      "type": "function"
    },
    {
      "inputs": [
        {
          "internalType": "address",
          "name": "_address",
          "type": "address"
        }
      ],
      "name": "getBalance",
      "outputs": [
        {
          "internalType": "uint256",
          "name": "",
          "type": "uint256"
        }
      ],
      "stateMutability": "view",
      "type": "function"
    },
    {
      "inputs": [],
      "name": "getNumStakers",
      "outputs": [
        {
          "internalType": "uint256",
          "name": "",
          "type": "uint256"
        }
      ],
      "stateMutability": "view",
      "type": "function"
    },
    {
      "inputs": [
        {
          "internalType": "address",
          "name": "_address",
          "type": "address"
        }
      ],
      "name": "getStake",
      "outputs": [
        {
          "internalType": "uint256",
          "name": "",
          "type": "uint256"
        }
      ],
      "stateMutability": "view",
      "type": "function"
    },
    {
      "inputs": [
        {
          "internalType": "address",
          "name": "_address",
          "type": "address"
        }
      ],
      "name": "getStakeTime",
      "outputs": [
        {
          "internalType": "uint256",
          "name": "",
          "type": "uint256"
        }
      ],
      "stateMutability": "view",
      "type": "function"
    },
    {
      "inputs": [],
      "name": "interestRate",
      "outputs": [
        {
          "internalType": "uint256",
          "name": "",
          "type": "uint256"
        }
      ],
      "stateMutability": "view",
      "type": "function"
    },
    {
      "inputs": [],
      "name": "maxStakeSeconds",
      "outputs": [
        {
          "internalType": "uint256",
          "name": "",
          "type": "uint256"
        }
      ],
      "stateMutability": "view",
      "type": "function"
    },
    {
      "inputs": [],
      "name": "minStakeSeconds",
      "outputs": [
        {
          "internalType": "uint256",
          "name": "",
          "type": "uint256"
        }
      ],
      "stateMutability": "view",
      "type": "function"
    },
    {
      "inputs": [],
      "name": "owner",
      "outputs": [
        {
          "internalType": "address",
          "name": "",
          "type": "address"
        }
      ],
      "stateMutability": "view",
      "type": "function"
    },
    {
      "inputs": [
        {
          "internalType": "uint256",
          "name": "_interestRate",
          "type": "uint256"
        }
      ],
      "name": "setInterestRate",
      "outputs": [],
      "stateMutability": "nonpayable",
      "type": "function"
    },
    {
      "inputs": [
        {
          "internalType": "uint256",
          "name": "_maxStakeSeconds",
          "type": "uint256"
        }
      ],
      "name": "setMaxStakeSeconds",
      "outputs": [],
      "stateMutability": "nonpayable",
      "type": "function"
    },
    {
      "inputs": [
        {
          "internalType": "uint256",
          "name": "_minStakeSeconds",
          "type": "uint256"
        }
      ],
      "name": "setMinStakeSeconds",
      "outputs": [],
      "stateMutability": "nonpayable",
      "type": "function"
    },
    {
      "inputs": [
        {
          "internalType": "address",
          "name": "_treasury",
          "type": "address"
        }
      ],
      "name": "setTreasury",
      "outputs": [],
      "stateMutability": "nonpayable",
      "type": "function"
    },
    {
      "inputs": [
        {
          "internalType": "uint256",
          "name": "_withdrawalPeriodEndsSeconds",
          "type": "uint256"
        }
      ],
      "name": "setWithdrawalPeriodEndsSeconds",
      "outputs": [],
      "stateMutability": "nonpayable",
      "type": "function"
    },
    {
      "inputs": [
        {
          "internalType": "uint256",
          "name": "amount",
          "type": "uint256"
        }
      ],
      "name": "stake",
      "outputs": [],
      "stateMutability": "payable",
      "type": "function"
    },
    {
      "inputs": [
        {
          "internalType": "address",
          "name": "",
          "type": "address"
        }
      ],
      "name": "stakedTime",
      "outputs": [
        {
          "internalType": "uint256",
          "name": "",
          "type": "uint256"
        }
      ],
      "stateMutability": "view",
      "type": "function"
    },
    {
      "inputs": [
        {
          "internalType": "address",
          "name": "",
          "type": "address"
        }
      ],
      "name": "stakes",
      "outputs": [
        {
          "internalType": "uint256",
          "name": "",
          "type": "uint256"
        }
      ],
      "stateMutability": "view",
      "type": "function"
    },
    {
      "inputs": [],
      "name": "treasury",
      "outputs": [
        {
          "internalType": "contract Treasury",
          "name": "",
          "type": "address"
        }
      ],
      "stateMutability": "view",
      "type": "function"
    },
    {
      "inputs": [],
      "name": "unstake",
      "outputs": [],
      "stateMutability": "nonpayable",
      "type": "function"
    },
    {
      "inputs": [],
      "name": "withdraw",
      "outputs": [],
      "stateMutability": "nonpayable",
      "type": "function"
    },
    {
      "inputs": [],
      "name": "withdrawalPeriodEndsSeconds",
      "outputs": [
        {
          "internalType": "uint256",
          "name": "",
          "type": "uint256"
        }
      ],
      "stateMutability": "view",
      "type": "function"
    },
    {
      "stateMutability": "payable",
      "type": "receive"
    }
  ],
  "bytecode": "0x60806040523480156200001157600080fd5b5060405162002b9a38038062002b9a8339818101604052810190620000379190620000de565b33600760006101000a81548173ffffffffffffffffffffffffffffffffffffffff021916908373ffffffffffffffffffffffffffffffffffffffff16021790555083600681905550826008819055508160098190555080600a819055505050505062000150565b600080fd5b6000819050919050565b620000b881620000a3565b8114620000c457600080fd5b50565b600081519050620000d881620000ad565b92915050565b60008060008060808587031215620000fb57620000fa6200009e565b5b60006200010b87828801620000c7565b94505060206200011e87828801620000c7565b93505060406200013187828801620000c7565b92505060606200014487828801620000c7565b91505092959194509250565b612a3a80620001606000396000f3fe6080604052600436106101a05760003560e01c80635f84f302116100ec57806392fb161d1161008a578063bcfd8dbf11610064578063bcfd8dbf146105fc578063efdd7c0714610639578063f0f4426014610676578063f8b2cb4f1461069f57610236565b806392fb161d1461058a578063a694fc3a146105b5578063bc788d46146105d157610236565b80637c3a00fd116100c65780637c3a00fd146104e257806381c8cc621461050d57806382c7d452146105365780638da5cb5b1461055f57610236565b80635f84f3021461045157806361d027b31461047a5780637a766460146104a557610236565b806327e235e3116101595780633ccfd60b116101335780633ccfd60b146103de578063401d4482146103f557806340f0ba341461041e578063503de2ab1461044757610236565b806327e235e31461035f5780632def66201461039c578063375152b1146103b357610236565b8063061fcd871461023b57806306709555146102645780630e6db798146102a157806316415dde146102cc57806316934fc4146102f757806324b29a471461033457610236565b366102365734600160003373ffffffffffffffffffffffffffffffffffffffff1673ffffffffffffffffffffffffffffffffffffffff16815260200190815260200160002060008282546101f49190611dd8565b925050819055507f88a5966d370b9919b20f3e2c13ff65706f196a4e32cc2c12bf57088f88525874333460405161022c929190611e7e565b60405180910390a1005b600080fd5b34801561024757600080fd5b50610262600480360381019061025d9190611ed8565b6106dc565b005b34801561027057600080fd5b5061028b60048036038101906102869190611f31565b610776565b6040516102989190611f5e565b60405180910390f35b3480156102ad57600080fd5b506102b661078e565b6040516102c39190611f5e565b60405180910390f35b3480156102d857600080fd5b506102e1610794565b6040516102ee9190611f5e565b60405180910390f35b34801561030357600080fd5b5061031e60048036038101906103199190611f31565b61079a565b60405161032b9190611f5e565b60405180910390f35b34801561034057600080fd5b506103496107b2565b6040516103569190611f5e565b60405180910390f35b34801561036b57600080fd5b5061038660048036038101906103819190611f31565b6107b8565b6040516103939190611f5e565b60405180910390f35b3480156103a857600080fd5b506103b16107d0565b005b3480156103bf57600080fd5b506103c8610d06565b6040516103d59190611f5e565b60405180910390f35b3480156103ea57600080fd5b506103f3610d0c565b005b34801561040157600080fd5b5061041c60048036038101906104179190611f79565b610f94565b005b34801561042a57600080fd5b5061044560048036038101906104409190611f79565b6110d8565b005b61044f6111f9565b005b34801561045d57600080fd5b5061047860048036038101906104739190611ed8565b6112bd565b005b34801561048657600080fd5b5061048f611357565b60405161049c9190612018565b60405180910390f35b3480156104b157600080fd5b506104cc60048036038101906104c79190611f31565b61137b565b6040516104d99190611f5e565b60405180910390f35b3480156104ee57600080fd5b506104f76113c4565b6040516105049190611f5e565b60405180910390f35b34801561051957600080fd5b50610534600480360381019061052f9190611ed8565b6113ca565b005b34801561054257600080fd5b5061055d60048036038101906105589190611ed8565b611464565b005b34801561056b57600080fd5b506105746114fe565b6040516105819190612033565b60405180910390f35b34801561059657600080fd5b5061059f611524565b6040516105ac9190611f5e565b60405180910390f35b6105cf60048036038101906105ca9190611ed8565b61152a565b005b3480156105dd57600080fd5b506105e6611a51565b6040516105f39190611f5e565b60405180910390f35b34801561060857600080fd5b50610623600480360381019061061e9190611f31565b611af7565b6040516106309190611f5e565b60405180910390f35b34801561064557600080fd5b50610660600480360381019061065b919061204e565b611b40565b60405161066d9190611f5e565b60405180910390f35b34801561068257600080fd5b5061069d60048036038101906106989190611f31565b611bf3565b005b3480156106ab57600080fd5b506106c660048036038101906106c19190611f31565b611d56565b6040516106d39190611f5e565b60405180910390f35b600760009054906101000a900473ffffffffffffffffffffffffffffffffffffffff1673ffffffffffffffffffffffffffffffffffffffff163373ffffffffffffffffffffffffffffffffffffffff161461076c576040517f08c379a000000000000000000000000000000000000000000000000000000000815260040161076390612111565b60405180910390fd5b8060088190555050565b60036020528060005260406000206000915090505481565b60085481565b60045481565b60026020528060005260406000206000915090505481565b60055481565b60016020528060005260406000206000915090505481565b6001801561085f576000600260003373ffffffffffffffffffffffffffffffffffffffff1673ffffffffffffffffffffffffffffffffffffffff168152602001908152602001600020541161085a576040517f08c379a00000000000000000000000000000000000000000000000000000000081526004016108519061217d565b60405180910390fd5b6108e2565b6000600260003373ffffffffffffffffffffffffffffffffffffffff1673ffffffffffffffffffffffffffffffffffffffff16815260200190815260200160002054146108e1576040517f08c379a00000000000000000000000000000000000000000000000000000000081526004016108d8906121e9565b60405180910390fd5b5b6000600854600360003373ffffffffffffffffffffffffffffffffffffffff1673ffffffffffffffffffffffffffffffffffffffff168152602001908152602001600020546109319190611dd8565b90506000600a54600360003373ffffffffffffffffffffffffffffffffffffffff1673ffffffffffffffffffffffffffffffffffffffff168152602001908152602001600020546109829190611dd8565b9050814210156109c7576040517f08c379a00000000000000000000000000000000000000000000000000000000081526004016109be90612255565b60405180910390fd5b80421115610a0a576040517f08c379a0000000000000000000000000000000000000000000000000000000008152600401610a01906122c1565b60405180910390fd5b6000600260003373ffffffffffffffffffffffffffffffffffffffff1673ffffffffffffffffffffffffffffffffffffffff1681526020019081526020016000205490506000600260003373ffffffffffffffffffffffffffffffffffffffff1673ffffffffffffffffffffffffffffffffffffffff1681526020019081526020016000208190555060008054906101000a900473ffffffffffffffffffffffffffffffffffffffff1673ffffffffffffffffffffffffffffffffffffffff1663f2888dbb336040518263ffffffff1660e01b8152600401610aec9190612033565b600060405180830381600087803b158015610b0657600080fd5b505af1158015610b1a573d6000803e3d6000fd5b5050505080600160003373ffffffffffffffffffffffffffffffffffffffff1673ffffffffffffffffffffffffffffffffffffffff1681526020019081526020016000206000828254610b6d9190611dd8565b925050819055506000600360003373ffffffffffffffffffffffffffffffffffffffff1673ffffffffffffffffffffffffffffffffffffffff1681526020019081526020016000205442610bc191906122e1565b90506000610bcf8383611b40565b905080600160003373ffffffffffffffffffffffffffffffffffffffff1673ffffffffffffffffffffffffffffffffffffffff1681526020019081526020016000206000828254610c209190611dd8565b925050819055508060046000828254610c3991906122e1565b9250508190555080633b9aca0060065485610c549190612315565b610c5e919061239e565b610c6891906122e1565b60056000828254610c799190611dd8565b925050819055506000600360003373ffffffffffffffffffffffffffffffffffffffff1673ffffffffffffffffffffffffffffffffffffffff168152602001908152602001600020819055507f0f5bb82176feb1b5e747e28471aa92156a04d9f3ab9f45f28e2d704232b93f753384604051610cf6929190611e7e565b60405180910390a1505050505050565b60095481565b60018015610d9b576000600160003373ffffffffffffffffffffffffffffffffffffffff1673ffffffffffffffffffffffffffffffffffffffff1681526020019081526020016000205411610d96576040517f08c379a0000000000000000000000000000000000000000000000000000000008152600401610d8d9061241b565b60405180910390fd5b610e1e565b6000600160003373ffffffffffffffffffffffffffffffffffffffff1673ffffffffffffffffffffffffffffffffffffffff1681526020019081526020016000205414610e1d576040517f08c379a0000000000000000000000000000000000000000000000000000000008152600401610e1490612487565b60405180910390fd5b5b6000600160003373ffffffffffffffffffffffffffffffffffffffff1673ffffffffffffffffffffffffffffffffffffffff1681526020019081526020016000205490506000600160003373ffffffffffffffffffffffffffffffffffffffff1673ffffffffffffffffffffffffffffffffffffffff168152602001908152602001600020819055506000803373ffffffffffffffffffffffffffffffffffffffff1683604051610ece906124d8565b60006040518083038185875af1925050503d8060008114610f0b576040519150601f19603f3d011682016040523d82523d6000602084013e610f10565b606091505b509150915081610f55576040517f08c379a0000000000000000000000000000000000000000000000000000000008152600401610f4c9061255f565b60405180910390fd5b7f884edad9ce6fa2440d8a54cc123490eb96d2768479d49ff9c7366125a94243643384604051610f86929190611e7e565b60405180910390a150505050565b600760009054906101000a900473ffffffffffffffffffffffffffffffffffffffff1673ffffffffffffffffffffffffffffffffffffffff163373ffffffffffffffffffffffffffffffffffffffff1614611024576040517f08c379a000000000000000000000000000000000000000000000000000000000815260040161101b90612111565b60405180910390fd5b6000808373ffffffffffffffffffffffffffffffffffffffff168360405161104b906124d8565b60006040518083038185875af1925050503d8060008114611088576040519150601f19603f3d011682016040523d82523d6000602084013e61108d565b606091505b5091509150816110d2576040517f08c379a00000000000000000000000000000000000000000000000000000000081526004016110c99061255f565b60405180910390fd5b50505050565b600760009054906101000a900473ffffffffffffffffffffffffffffffffffffffff1673ffffffffffffffffffffffffffffffffffffffff163373ffffffffffffffffffffffffffffffffffffffff1614611168576040517f08c379a000000000000000000000000000000000000000000000000000000000815260040161115f90612111565b60405180910390fd5b60008054906101000a900473ffffffffffffffffffffffffffffffffffffffff1673ffffffffffffffffffffffffffffffffffffffff1663401d448283836040518363ffffffff1660e01b81526004016111c39291906125a0565b600060405180830381600087803b1580156111dd57600080fd5b505af11580156111f1573d6000803e3d6000fd5b505050505050565b600760009054906101000a900473ffffffffffffffffffffffffffffffffffffffff1673ffffffffffffffffffffffffffffffffffffffff163373ffffffffffffffffffffffffffffffffffffffff1614611289576040517f08c379a000000000000000000000000000000000000000000000000000000000815260040161128090612111565b60405180910390fd5b346004600082825461129b9190611dd8565b9250508190555034600560008282546112b49190611dd8565b92505081905550565b600760009054906101000a900473ffffffffffffffffffffffffffffffffffffffff1673ffffffffffffffffffffffffffffffffffffffff163373ffffffffffffffffffffffffffffffffffffffff161461134d576040517f08c379a000000000000000000000000000000000000000000000000000000000815260040161134490612111565b60405180910390fd5b8060068190555050565b60008054906101000a900473ffffffffffffffffffffffffffffffffffffffff1681565b6000600260008373ffffffffffffffffffffffffffffffffffffffff1673ffffffffffffffffffffffffffffffffffffffff168152602001908152602001600020549050919050565b60065481565b600760009054906101000a900473ffffffffffffffffffffffffffffffffffffffff1673ffffffffffffffffffffffffffffffffffffffff163373ffffffffffffffffffffffffffffffffffffffff161461145a576040517f08c379a000000000000000000000000000000000000000000000000000000000815260040161145190612111565b60405180910390fd5b80600a8190555050565b600760009054906101000a900473ffffffffffffffffffffffffffffffffffffffff1673ffffffffffffffffffffffffffffffffffffffff163373ffffffffffffffffffffffffffffffffffffffff16146114f4576040517f08c379a00000000000000000000000000000000000000000000000000000000081526004016114eb90612111565b60405180910390fd5b8060098190555050565b600760009054906101000a900473ffffffffffffffffffffffffffffffffffffffff1681565b600a5481565b600180156115b9576000600160003373ffffffffffffffffffffffffffffffffffffffff1673ffffffffffffffffffffffffffffffffffffffff16815260200190815260200160002054116115b4576040517f08c379a00000000000000000000000000000000000000000000000000000000081526004016115ab9061241b565b60405180910390fd5b61163c565b6000600160003373ffffffffffffffffffffffffffffffffffffffff1673ffffffffffffffffffffffffffffffffffffffff168152602001908152602001600020541461163b576040517f08c379a000000000000000000000000000000000000000000000000000000000815260040161163290612487565b60405180910390fd5b5b600080156116cb576000600260003373ffffffffffffffffffffffffffffffffffffffff1673ffffffffffffffffffffffffffffffffffffffff16815260200190815260200160002054116116c6576040517f08c379a00000000000000000000000000000000000000000000000000000000081526004016116bd9061217d565b60405180910390fd5b61174e565b6000600260003373ffffffffffffffffffffffffffffffffffffffff1673ffffffffffffffffffffffffffffffffffffffff168152602001908152602001600020541461174d576040517f08c379a0000000000000000000000000000000000000000000000000000000008152600401611744906121e9565b60405180910390fd5b5b60008311611791576040517f08c379a00000000000000000000000000000000000000000000000000000000081526004016117889061263b565b60405180910390fd5b600160003373ffffffffffffffffffffffffffffffffffffffff1673ffffffffffffffffffffffffffffffffffffffff16815260200190815260200160002054831115611813576040517f08c379a000000000000000000000000000000000000000000000000000000000815260040161180a906126cd565b60405180910390fd5b600554633b9aca00600654856118299190612315565b611833919061239e565b1115611874576040517f08c379a000000000000000000000000000000000000000000000000000000000815260040161186b90612785565b60405180910390fd5b633b9aca00600654846118879190612315565b611891919061239e565b600560008282546118a291906122e1565b9250508190555082600160003373ffffffffffffffffffffffffffffffffffffffff1673ffffffffffffffffffffffffffffffffffffffff16815260200190815260200160002060008282546118f891906122e1565b9250508190555082600260003373ffffffffffffffffffffffffffffffffffffffff1673ffffffffffffffffffffffffffffffffffffffff1681526020019081526020016000208190555042600360003373ffffffffffffffffffffffffffffffffffffffff1673ffffffffffffffffffffffffffffffffffffffff1681526020019081526020016000208190555060008054906101000a900473ffffffffffffffffffffffffffffffffffffffff1673ffffffffffffffffffffffffffffffffffffffff16632647620484336040518363ffffffff1660e01b81526004016119e19190612033565b6000604051808303818588803b1580156119fa57600080fd5b505af1158015611a0e573d6000803e3d6000fd5b50505050507f9e71bc8eea02a63969f509818f2dafb9254532904319f9dbda79b67bd34a5f3d3384604051611a44929190611e7e565b60405180910390a1505050565b60008060009054906101000a900473ffffffffffffffffffffffffffffffffffffffff1673ffffffffffffffffffffffffffffffffffffffff1663fed1252a6040518163ffffffff1660e01b815260040160206040518083038186803b158015611aba57600080fd5b505afa158015611ace573d6000803e3d6000fd5b505050506040513d601f19601f82011682018060405250810190611af291906127ba565b905090565b6000600360008373ffffffffffffffffffffffffffffffffffffffff1673ffffffffffffffffffffffffffffffffffffffff168152602001908152602001600020549050919050565b600080633b9aca0060065485611b569190612315565b611b60919061239e565b90508260095410611b715782611b75565b6009545b92506000600954633b9aca0085600954611b8f91906122e1565b611b999190612315565b611ba3919061239e565b633b9aca00611bb291906122e1565b90506000600382611bc39190612927565b90506b033b2e3c9fd0803ce80000008184611bde9190612315565b611be8919061239e565b935050505092915050565b600760009054906101000a900473ffffffffffffffffffffffffffffffffffffffff1673ffffffffffffffffffffffffffffffffffffffff163373ffffffffffffffffffffffffffffffffffffffff1614611c83576040517f08c379a0000000000000000000000000000000000000000000000000000000008152600401611c7a90612111565b60405180910390fd5b600760009054906101000a900473ffffffffffffffffffffffffffffffffffffffff1673ffffffffffffffffffffffffffffffffffffffff163373ffffffffffffffffffffffffffffffffffffffff1614611d13576040517f08c379a0000000000000000000000000000000000000000000000000000000008152600401611d0a906129e4565b60405180910390fd5b806000806101000a81548173ffffffffffffffffffffffffffffffffffffffff021916908373ffffffffffffffffffffffffffffffffffffffff16021790555050565b6000600160008373ffffffffffffffffffffffffffffffffffffffff1673ffffffffffffffffffffffffffffffffffffffff168152602001908152602001600020549050919050565b6000819050919050565b7f4e487b7100000000000000000000000000000000000000000000000000000000600052601160045260246000fd5b6000611de382611d9f565b9150611dee83611d9f565b9250827fffffffffffffffffffffffffffffffffffffffffffffffffffffffffffffffff03821115611e2357611e22611da9565b5b828201905092915050565b600073ffffffffffffffffffffffffffffffffffffffff82169050919050565b6000611e5982611e2e565b9050919050565b611e6981611e4e565b82525050565b611e7881611d9f565b82525050565b6000604082019050611e936000830185611e60565b611ea06020830184611e6f565b9392505050565b600080fd5b611eb581611d9f565b8114611ec057600080fd5b50565b600081359050611ed281611eac565b92915050565b600060208284031215611eee57611eed611ea7565b5b6000611efc84828501611ec3565b91505092915050565b611f0e81611e4e565b8114611f1957600080fd5b50565b600081359050611f2b81611f05565b92915050565b600060208284031215611f4757611f46611ea7565b5b6000611f5584828501611f1c565b91505092915050565b6000602082019050611f736000830184611e6f565b92915050565b60008060408385031215611f9057611f8f611ea7565b5b6000611f9e85828601611f1c565b9250506020611faf85828601611ec3565b9150509250929050565b6000819050919050565b6000611fde611fd9611fd484611e2e565b611fb9565b611e2e565b9050919050565b6000611ff082611fc3565b9050919050565b600061200282611fe5565b9050919050565b61201281611ff7565b82525050565b600060208201905061202d6000830184612009565b92915050565b60006020820190506120486000830184611e60565b92915050565b6000806040838503121561206557612064611ea7565b5b600061207385828601611ec3565b925050602061208485828601611ec3565b9150509250929050565b600082825260208201905092915050565b7f4f6e6c7920746865206f776e65722063616e2063616c6c20746869732066756e60008201527f6374696f6e000000000000000000000000000000000000000000000000000000602082015250565b60006120fb60258361208e565b91506121068261209f565b604082019050919050565b6000602082019050818103600083015261212a816120ee565b9050919050565b7f596f752068617665206e6f207374616b65000000000000000000000000000000600082015250565b600061216760118361208e565b915061217282612131565b602082019050919050565b600060208201905081810360008301526121968161215a565b9050919050565b7f596f75206861766520616c7265616479207374616b6564000000000000000000600082015250565b60006121d360178361208e565b91506121de8261219d565b602082019050919050565b60006020820190508181036000830152612202816121c6565b9050919050565b7f596f752063616e277420756e7374616b65207965740000000000000000000000600082015250565b600061223f60158361208e565b915061224a82612209565b602082019050919050565b6000602082019050818103600083015261226e81612232565b9050919050565b7f556e7374616b6520706572696f64206578636565646564000000000000000000600082015250565b60006122ab60178361208e565b91506122b682612275565b602082019050919050565b600060208201905081810360008301526122da8161229e565b9050919050565b60006122ec82611d9f565b91506122f783611d9f565b92508282101561230a57612309611da9565b5b828203905092915050565b600061232082611d9f565b915061232b83611d9f565b9250817fffffffffffffffffffffffffffffffffffffffffffffffffffffffffffffffff048311821515161561236457612363611da9565b5b828202905092915050565b7f4e487b7100000000000000000000000000000000000000000000000000000000600052601260045260246000fd5b60006123a982611d9f565b91506123b483611d9f565b9250826123c4576123c361236f565b5b828204905092915050565b7f596f752068617665206e6f2062616c616e636500000000000000000000000000600082015250565b600061240560138361208e565b9150612410826123cf565b602082019050919050565b60006020820190508181036000830152612434816123f8565b9050919050565b7f596f75206861766520616c7265616479206465706f7369746564000000000000600082015250565b6000612471601a8361208e565b915061247c8261243b565b602082019050919050565b600060208201905081810360008301526124a081612464565b9050919050565b600081905092915050565b50565b60006124c26000836124a7565b91506124cd826124b2565b600082019050919050565b60006124e3826124b5565b9150819050919050565b7f4661696c656420746f2073656e64207468652062616c616e636520746f20746860008201527f652073656e646572000000000000000000000000000000000000000000000000602082015250565b600061254960288361208e565b9150612554826124ed565b604082019050919050565b600060208201905081810360008301526125788161253c565b9050919050565b600061258a82611e2e565b9050919050565b61259a8161257f565b82525050565b60006040820190506125b56000830185612591565b6125c26020830184611e6f565b9392505050565b7f5374616b6520616d6f756e74206d75737420626520677265617465722074686160008201527f6e20300000000000000000000000000000000000000000000000000000000000602082015250565b600061262560238361208e565b9150612630826125c9565b604082019050919050565b6000602082019050818103600083015261265481612618565b9050919050565b7f5374616b6520616d6f756e74206d757374206265206c657373207468616e206f60008201527f7220657175616c20746f207468652062616c616e636500000000000000000000602082015250565b60006126b760368361208e565b91506126c28261265b565b604082019050919050565b600060208201905081810360008301526126e6816126aa565b9050919050565b7f5374616b6520616d6f756e74206d757374206265206c657373207468616e206f60008201527f7220657175616c20746f2074686520617661696c61626c6520696e746572657360208201527f7400000000000000000000000000000000000000000000000000000000000000604082015250565b600061276f60418361208e565b915061277a826126ed565b606082019050919050565b6000602082019050818103600083015261279e81612762565b9050919050565b6000815190506127b481611eac565b92915050565b6000602082840312156127d0576127cf611ea7565b5b60006127de848285016127a5565b91505092915050565b60008160011c9050919050565b6000808291508390505b600185111561283e5780860481111561281a57612819611da9565b5b60018516156128295780820291505b8081029050612837856127e7565b94506127fe565b94509492505050565b6000826128575760019050612913565b816128655760009050612913565b816001811461287b5760028114612885576128b4565b6001915050612913565b60ff84111561289757612896611da9565b5b8360020a9150848211156128ae576128ad611da9565b5b50612913565b5060208310610133831016604e8410600b84101617156128e95782820a9050838111156128e4576128e3611da9565b5b612913565b6128f684848460016127f4565b9250905081840481111561290d5761290c611da9565b5b81810290505b9392505050565b600060ff82169050919050565b600061293282611d9f565b915061293d8361291a565b925061296a7fffffffffffffffffffffffffffffffffffffffffffffffffffffffffffffffff8484612847565b905092915050565b7f4f6e6c79206f776e65722063616e20736574207468652074726561737572792060008201527f636f6e7472616374206164647265737300000000000000000000000000000000602082015250565b60006129ce60308361208e565b91506129d982612972565b604082019050919050565b600060208201905081810360008301526129fd816129c1565b905091905056fea2646970667358221220a841b96a0cfb5a8a1f96fe9ea7bf1a9cf1dbfe4ba14fa5931347cdb2f1c16baa64736f6c63430008090033",
  "linkReferences": {},
  "deployedLinkReferences": {}
}