{
  "_format": "hh-sol-artifact-1",
  "contractName": "Treasury",
  "sourceName": "contracts/Treasury.sol",
  "abi": [
    {
      "inputs": [
        {
          "internalType": "address",
          "name": "_allowedCaller",
          "type": "address"
        }
      ],
      "stateMutability": "nonpayable",
      "type": "constructor"
    },
    {
      "anonymous": false,
      "inputs": [
        {
          "indexed": false,
          "internalType": "address",
          "name": "_staker",
          "type": "address"
        },
        {
          "indexed": false,
          "internalType": "uint256",
          "name": "_amount",
          "type": "uint256"
        }
      ],
      "name": "Staked",
      "type": "event"
    },
    {
      "anonymous": false,
      "inputs": [
        {
          "indexed": false,
          "internalType": "address",
          "name": "_staker",
          "type": "address"
        },
        {
          "indexed": false,
          "internalType": "uint256",
          "name": "_amount",
          "type": "uint256"
        }
      ],
      "name": "Unstaked",
      "type": "event"
    },
    {
      "inputs": [
        {
          "internalType": "address payable",
          "name": "_to",
          "type": "address"
        },
        {
          "internalType": "uint256",
          "name": "_amount",
          "type": "uint256"
        }
      ],
      "name": "adminWithdraw",
      "outputs": [],
      "stateMutability": "nonpayable",
      "type": "function"
    },
    {
      "inputs": [],
      "name": "allowedCaller",
      "outputs": [
        {
          "internalType": "address",
          "name": "",
          "type": "address"
        }
      ],
      "stateMutability": "view",
      "type": "function"
    },
    {
      "inputs": [
        {
          "internalType": "address",
          "name": "",
          "type": "address"
        }
      ],
      "name": "balances",
      "outputs": [
        {
          "internalType": "uint256",
          "name": "",
          "type": "uint256"
        }
      ],
      "stateMutability": "view",
      "type": "function"
    },
    {
      "inputs": [
        {
          "internalType": "address",
          "name": "_allowedCaller",
          "type": "address"
        }
      ],
      "name": "setAllowedCaller",
      "outputs": [],
      "stateMutability": "nonpayable",
      "type": "function"
    },
    {
      "inputs": [
        {
          "internalType": "address",
          "name": "_staker",
          "type": "address"
        }
      ],
      "name": "stake",
      "outputs": [],
      "stateMutability": "payable",
      "type": "function"
    },
    {
      "inputs": [],
      "name": "stakers",
      "outputs": [
        {
          "internalType": "uint256",
          "name": "",
          "type": "uint256"
        }
      ],
      "stateMutability": "view",
      "type": "function"
    },
    {
      "inputs": [
        {
          "internalType": "address",
          "name": "_staker",
          "type": "address"
        }
      ],
      "name": "unstake",
      "outputs": [],
      "stateMutability": "nonpayable",
      "type": "function"
    }
  ],
  "bytecode": "0x608060405234801561001057600080fd5b50604051610f66380380610f66833981810160405281019061003291906100db565b806000806101000a81548173ffffffffffffffffffffffffffffffffffffffff021916908373ffffffffffffffffffffffffffffffffffffffff16021790555050610108565b600080fd5b600073ffffffffffffffffffffffffffffffffffffffff82169050919050565b60006100a88261007d565b9050919050565b6100b88161009d565b81146100c357600080fd5b50565b6000815190506100d5816100af565b92915050565b6000602082840312156100f1576100f0610078565b5b60006100ff848285016100c6565b91505092915050565b610e4f806101176000396000f3fe6080604052600436106100705760003560e01c8063401d44821161004e578063401d4482146100f9578063b16d643614610122578063f2888dbb1461014b578063fed1252a1461017457610070565b8063264762041461007557806327e235e3146100915780633895d938146100ce575b600080fd5b61008f600480360381019061008a91906108d1565b61019f565b005b34801561009d57600080fd5b506100b860048036038101906100b391906108d1565b61031b565b6040516100c59190610917565b60405180910390f35b3480156100da57600080fd5b506100e3610333565b6040516100f09190610941565b60405180910390f35b34801561010557600080fd5b50610120600480360381019061011b91906109c6565b610357565b005b34801561012e57600080fd5b50610149600480360381019061014491906108d1565b610499565b005b34801561015757600080fd5b50610172600480360381019061016d91906108d1565b61056a565b005b34801561018057600080fd5b50610189610868565b6040516101969190610917565b60405180910390f35b60008054906101000a900473ffffffffffffffffffffffffffffffffffffffff1673ffffffffffffffffffffffffffffffffffffffff163373ffffffffffffffffffffffffffffffffffffffff161461022d576040517f08c379a000000000000000000000000000000000000000000000000000000000815260040161022490610a89565b60405180910390fd5b60003411610270576040517f08c379a000000000000000000000000000000000000000000000000000000000815260040161026790610b1b565b60405180910390fd5b34600260008373ffffffffffffffffffffffffffffffffffffffff1673ffffffffffffffffffffffffffffffffffffffff16815260200190815260200160002060008282546102bf9190610b6a565b9250508190555060018060008282546102d89190610b6a565b925050819055507f9e71bc8eea02a63969f509818f2dafb9254532904319f9dbda79b67bd34a5f3d8134604051610310929190610bc0565b60405180910390a150565b60026020528060005260406000206000915090505481565b60008054906101000a900473ffffffffffffffffffffffffffffffffffffffff1681565b60008054906101000a900473ffffffffffffffffffffffffffffffffffffffff1673ffffffffffffffffffffffffffffffffffffffff163373ffffffffffffffffffffffffffffffffffffffff16146103e5576040517f08c379a00000000000000000000000000000000000000000000000000000000081526004016103dc90610a89565b60405180910390fd5b6000808373ffffffffffffffffffffffffffffffffffffffff168360405161040c90610c1a565b60006040518083038185875af1925050503d8060008114610449576040519150601f19603f3d011682016040523d82523d6000602084013e61044e565b606091505b509150915081610493576040517f08c379a000000000000000000000000000000000000000000000000000000000815260040161048a90610ca1565b60405180910390fd5b50505050565b60008054906101000a900473ffffffffffffffffffffffffffffffffffffffff1673ffffffffffffffffffffffffffffffffffffffff163373ffffffffffffffffffffffffffffffffffffffff1614610527576040517f08c379a000000000000000000000000000000000000000000000000000000000815260040161051e90610a89565b60405180910390fd5b806000806101000a81548173ffffffffffffffffffffffffffffffffffffffff021916908373ffffffffffffffffffffffffffffffffffffffff16021790555050565b60008054906101000a900473ffffffffffffffffffffffffffffffffffffffff1673ffffffffffffffffffffffffffffffffffffffff163373ffffffffffffffffffffffffffffffffffffffff16146105f8576040517f08c379a00000000000000000000000000000000000000000000000000000000081526004016105ef90610a89565b60405180910390fd5b6000600260008373ffffffffffffffffffffffffffffffffffffffff1673ffffffffffffffffffffffffffffffffffffffff168152602001908152602001600020541161067a576040517f08c379a000000000000000000000000000000000000000000000000000000000815260040161067190610d33565b60405180910390fd5b6000600260008373ffffffffffffffffffffffffffffffffffffffff1673ffffffffffffffffffffffffffffffffffffffff1681526020019081526020016000205490506000600260008473ffffffffffffffffffffffffffffffffffffffff1673ffffffffffffffffffffffffffffffffffffffff1681526020019081526020016000208190555060008060008054906101000a900473ffffffffffffffffffffffffffffffffffffffff1673ffffffffffffffffffffffffffffffffffffffff168360405161074a90610c1a565b60006040518083038185875af1925050503d8060008114610787576040519150601f19603f3d011682016040523d82523d6000602084013e61078c565b606091505b5091509150816107d1576040517f08c379a00000000000000000000000000000000000000000000000000000000081526004016107c890610dc5565b60405180910390fd5b60018060008282546107e39190610de5565b925050819055507f0f5bb82176feb1b5e747e28471aa92156a04d9f3ab9f45f28e2d704232b93f7584600260008773ffffffffffffffffffffffffffffffffffffffff1673ffffffffffffffffffffffffffffffffffffffff1681526020019081526020016000205460405161085a929190610bc0565b60405180910390a150505050565b60015481565b600080fd5b600073ffffffffffffffffffffffffffffffffffffffff82169050919050565b600061089e82610873565b9050919050565b6108ae81610893565b81146108b957600080fd5b50565b6000813590506108cb816108a5565b92915050565b6000602082840312156108e7576108e661086e565b5b60006108f5848285016108bc565b91505092915050565b6000819050919050565b610911816108fe565b82525050565b600060208201905061092c6000830184610908565b92915050565b61093b81610893565b82525050565b60006020820190506109566000830184610932565b92915050565b600061096782610873565b9050919050565b6109778161095c565b811461098257600080fd5b50565b6000813590506109948161096e565b92915050565b6109a3816108fe565b81146109ae57600080fd5b50565b6000813590506109c08161099a565b92915050565b600080604083850312156109dd576109dc61086e565b5b60006109eb85828601610985565b92505060206109fc858286016109b1565b9150509250929050565b600082825260208201905092915050565b7f4f6e6c7920616c6c6f7765642063616c6c65722063616e2063616c6c2074686960008201527f732066756e6374696f6e00000000000000000000000000000000000000000000602082015250565b6000610a73602a83610a06565b9150610a7e82610a17565b604082019050919050565b60006020820190508181036000830152610aa281610a66565b9050919050565b7f5374616b6520616d6f756e74206d75737420626520677265617465722074686160008201527f6e20300000000000000000000000000000000000000000000000000000000000602082015250565b6000610b05602383610a06565b9150610b1082610aa9565b604082019050919050565b60006020820190508181036000830152610b3481610af8565b9050919050565b7f4e487b7100000000000000000000000000000000000000000000000000000000600052601160045260246000fd5b6000610b75826108fe565b9150610b80836108fe565b9250827fffffffffffffffffffffffffffffffffffffffffffffffffffffffffffffffff03821115610bb557610bb4610b3b565b5b828201905092915050565b6000604082019050610bd56000830185610932565b610be26020830184610908565b9392505050565b600081905092915050565b50565b6000610c04600083610be9565b9150610c0f82610bf4565b600082019050919050565b6000610c2582610bf7565b9150819050919050565b7f4661696c656420746f2073656e642074686520616d6f756e7420746f2074686560008201527f2061646472657373000000000000000000000000000000000000000000000000602082015250565b6000610c8b602883610a06565b9150610c9682610c2f565b604082019050919050565b60006020820190508181036000830152610cba81610c7e565b9050919050565b7f42616c616e636520616d6f756e74206f66207468652061646472657373206d7560008201527f73742062652067726561746572207468616e2030000000000000000000000000602082015250565b6000610d1d603483610a06565b9150610d2882610cc1565b604082019050919050565b60006020820190508181036000830152610d4c81610d10565b9050919050565b7f4661696c656420746f2073656e64207468652062616c616e636520746f20746860008201527f652063616c6c657220636f6e7472616374000000000000000000000000000000602082015250565b6000610daf603183610a06565b9150610dba82610d53565b604082019050919050565b60006020820190508181036000830152610dde81610da2565b9050919050565b6000610df0826108fe565b9150610dfb836108fe565b925082821015610e0e57610e0d610b3b565b5b82820390509291505056fea2646970667358221220f10858d7b769e56466c8b8c67abc3db070e053f4f25da36fb516d637c3abfe8964736f6c63430008090033",
  "linkReferences": {},
  "deployedLinkReferences": {}
}